:020000040800F2
:1000000000000120C5020008CB020008CF02000852
:1000100041030008450300088D03000800000000AC
:10002000000000000000000000000000D5030008F0
:10003000D903000800000000DD030008E103000808
:10004000F1030008F1030008F1030008F1030008C0
:10005000F1030008F1030008F1030008F1030008B0
:10006000F1030008F1030008F1030008F1030008A0
:10007000F1030008F1030008F1030008F103000890
:10008000F1030008F1030008C1100008000000009F
:10009000000000000000000000000000F103000864
:1000A000F1030008F1030008F1030008F103000860
:1000B000191A0008F1030008F1030008F103000811
:1000C000F1030008F1030008F1030008F103000840
:1000D000F1030008F1030008F1030008000000002C
:1000E000F1030008F1030008F1030008000000001C
:1000F000000000000000000000000000F103000804
:1001000000000000F1030008011B0008F1030008D3
:1001100000000000000000000000000000000000DF
:10012000F1030008F1030008F1030008F1030008DF
:10013000F1030008000000000000000000000000C3
:10014000000000000000000000000000F1030008B3
:10015000F1030008F1030008F1030008F1030008AF
:10016000F1030008F1030008000000000000000097
:10017000000000000000000000000000000000007F
:1001800000000000F1030008000000000000000073
:10019000F103000800B583B000F046FE384B394A41
:1001A0001360394A1360394900E02146384B9942BF
:1001B0000BD20A684B6801F10C0488689842F4D9A4
:1001C0001168196004330432F8E72E4B1A68314B7A
:1001D0009A4200D0FEE72C4B1A682F4B9A42F9D175
:1001E000274B2E4A13602E4A13602E4B05E0002049
:1001F000106004329342FAD80B462B4A934204D241
:10020000194651F8082B5B68F4E7244B1B6813B9B7
:10021000234B1B6803B1FEE701F002FD694601A80C
:1002200000F094FD214C224BE41AA4100025AC42AE
:1002300014DC204C204BE41AA4100025AC4213DC43
:100240000099019801F04AFD05461C4C1C4BE41A2C
:10025000A410002C0EDC284600F04AFD144B53F885
:10026000253098470135E2E7134B53F8253098477E
:100270000135E3E7013C124B53F824309847E8E797
:10028000BABADECA0000002074000020F40300089F
:100290000C04000878563412325476987800002006
:1002A000280100200C0400081C0400081C0400089D
:1002B0001C0400081C0400081C0400081C0400089E
:1002C0001C04000808B5FFF765FF00BEFEE71EF03E
:1002D000040F0CBFEFF30880EFF309807146414A29
:1002E00010472DE9F04182B004468846124B5E6B00
:1002F0009F6B9D6A1B6B13F0020F03D00E4BDB6AE2
:10030000002B0CDB0D4800F033FDCDF800803B46A0
:1003100032462946204600F093FD00BEFEE74BF62C
:10032000AB6100F007FE0028ECD0034B4FF0004219
:10033000DA6202B0BDE8F08100ED00E0C8350008E7
:1003400000BEFEE71EF0040F0CBFEFF30880EFF3D2
:1003500009807146244A10472DE9F04182B00446D5
:100360008846084B5E6B9F6B9D6A074800F000FD56
:10037000CDF800803B4632462946204600F060FD1D
:1003800000BEFEE700ED00E0D83500081EF0040FC7
:100390000CBFEFF30880EFF309807146134A104752
:1003A0002DE9F04182B004468846084B5E6B9F6B96
:1003B0009D6A074800F0DCFCCDF800803B463246E1
:1003C0002946204600F03CFD00BEFEE700ED00E0BF
:1003D000E435000800BEFEE700BEFEE700BEFEE713
:1003E00070470000E302000859030008A103000859
:0403F00000BEFEE766
:1003F4005836000800000020780000205836000815
:100404000000001000000010780000202C010020E3
:080414000000001000000010C0
:1004200010B50446074B1868074BA3FB0030800942
:1004300000F090F8002221464FF0FF3000F044F821
:10044000002010BD0C000020D34D621008B50B4BEE
:100450001A6842F400721A601A6842F480621A60E4
:100460001A6842F480721A60032000F00FF80F201F
:10047000FFF7D6FF01F0E0FD002008BD003C024080
:10048000014B1868704700BF2001002010B50446DA
:10049000C31E042B0FD80A4AD36823F4E0631B045D
:1004A0001B0C240204F4E064234343F0BF6343F4D1
:1004B0000033D36010BDA421024800F04FFCEAE7EE
:1004C00000ED00E0F833000870B505460C4616460E
:1004D0000F2A25D80F2C28D81B4BDB68C3F3022327
:1004E000C3F10702042A28BF0422191D062921D9B5
:1004F000033B4FF0FF3101FA02F224EA02049C4070
:1005000001FA03F326EA03063443002D14DB240129
:10051000E4B205F1604505F5614585F8004370BD1D
:10052000BC210A4800F01AFCD4E7BD21074800F0BE
:1005300015FCD1E70023DCE705F00F052401E4B248
:10054000034B5C55EBE700BF00ED00E0F83300081B
:1005500014ED00E00138B0F1807F0AD2064B5860FC
:10056000064AF02182F823100020986007221A60C2
:1005700070470120704700BF10E000E000ED00E090
:1005800010B50446042800D038B9042C0BD0094A11
:10059000136823F00403136010BD40F2B311064842
:1005A00000F0DCFBF1E7034A136843F00403136037
:1005B000F2E700BF10E000E0F833000830B583B088
:1005C000044603680F2B29D8236813F0010F3DD090
:1005D0006368012B01D9052B25D1A34B9B6803F040
:1005E0000C03042B29D0A04B9B6803F00C03082BB1
:1005F0001ED022799D4B1A706368002B50D0FFF7F4
:100600003FFF0546984B1B6813F4003F1ED1FFF7D0
:1006100037FF401B6428F5D90320E3E1F521944816
:1006200000F09CFBD0E7FA21914800F097FBD4E75B
:100630008D4B5B6813F4800FDBD08B4B1B6813F47E
:10064000003F03D06368002B00F0C981236813F0DA
:10065000020F5DD0E368012B31D823691F2B34D8FA
:10066000814B9B6813F00C0F3AD07F4B9B6803F0D3
:100670000C03082B2FD0E368002B74D07D4B012294
:100680001A60FFF7FDFE0546774B1B6813F0020F5B
:100690005AD1FFF7F5FE401B0228F5D90320A1E14E
:1006A000FFF7EEFE0546704B1B6813F4003FCDD0FC
:1006B000FFF7E6FE401B6428F5D9032092E14FF4D2
:1006C00096716B4800F04AFBC7E740F22D1168486D
:1006D00000F044FBC4E7644B5B6813F4800FCAD19D
:1006E000614B1B6813F0020F04D0E368012B01D0AB
:1006F000012077E15C48036823F0F8032169F822C0
:1007000092FAA2F2B2FA82F201FA02F21343036001
:10071000236813F0080F50D06369012B35D8636943
:10072000002B38D0544B01221A60FFF7A9FE054672
:100730004D4B5B6F13F0020F3FD1FFF7A1FE401B43
:100740000228F5D903204DE14748036823F0F80358
:100750002169F82292FAA2F2B2FA82F201FA02F2C6
:1007600013430360D4E7434B00221A60FFF788FE6F
:1007700005463D4B1B6813F0020FC9D0FFF780FE02
:10078000401B0228F5D903202CE140F26D113848B6
:1007900000F0E4FAC3E7384B00221A60FFF770FE5E
:1007A0000546314B5B6F13F0020F06D0FFF768FE72
:1007B000401B0228F5D9032014E1236813F0040F2D
:1007C00060D0A368012B01D9052B1FD10023019311
:1007D000254B1A6C42F080521A641B6C03F0805354
:1007E0000193019B254A136843F480731360FFF75C
:1007F00047FE0546214B1B6813F4807F0CD1FFF7A1
:100800003FFE401B0228F5D90320EBE040F2971190
:10081000174800F0A3FAD9E7227A194B1A70A36897
:1008200083B1FFF72DFE05460F4B1B6F13F0020F30
:1008300028D1FFF725FE401B41F288339842F3D9B7
:100840000320CFE0FFF71CFE0546074B1B6F13F09C
:10085000020F17D0FFF714FE401B41F28833984275
:10086000F3D90320BEE000BF003802400238024046
:100870003C34000800004742800E474200700040B0
:1008800070380240A369022B39D8A369002B00F00D
:10089000A880564A926802F00C02082A00F0A48050
:1008A000022B40F08880E36913B1B3F5800F2CD19F
:1008B000236A3F2B2FD8636A323BB3F5BF7F30D812
:1008C000A36A022B05D0042B03D0062B01D0082BE2
:1008D0002DD1E36A043B0B2B2FD8454B00221A6025
:1008E000FFF7CEFD0546414B1B6813F0007F2AD071
:1008F000FFF7C6FD401B0228F5D9032072E04FF434
:10090000E6713C4800F02AFABFE740F2D5113948B9
:1009100000F024FACCE74FF4EB71364800F01EFAF1
:10092000C9E740F2D711334800F018FAC8E74FF48E
:10093000EC71304800F012FACBE740F2D9112D48A3
:1009400000F00CFAC9E7E369226A1343616A47F6CB
:10095000C07292FAA2F2B2FA82F201FA02F21343E0
:10096000A26A5208013A4FF4403191FAA1F1B1FA6A
:1009700081F18A401343E16A4FF0706292FAA2F269
:10098000B2FA82F201FA02F21343184A5360184B8A
:1009900001221A60FFF774FD0446144B1B6813F024
:1009A000007F06D1FFF76CFD001B0228F5D903205C
:1009B00018E0002016E00E4B00221A60FFF760FDE1
:1009C00004460A4B1B6813F0007F06D0FFF758FD62
:1009D000001B0228F5D9032004E0002002E00120DA
:1009E00000E0002003B030BD0120FBE700380240EA
:1009F000600047423C340008214B9B6803F00C0325
:100A0000042B3AD0082B01D01E4870471C4B586865
:100A100000F03F005B6813F4800F1ED01A4AB2FB4F
:100A2000F0F2174B586847F6C073184093FAA3F3D7
:100A3000B3FA83F3D84000FB02F0114B5B6803F478
:100A400040334FF4403292FAA2F2B2FA82F2D3402B
:100A500001335B00B0FBF3F070470A4AB2FBF0F2DF
:100A6000074B586847F6C073184093FAA3F3B3FADC
:100A700083F3D84000FB02F0DFE70348704700BF74
:100A8000003802400024F40040787D0170B504462F
:100A90000D460368013B0E2B11D8072D15D88C4B42
:100AA0001B6803F00F03AB4215D2EBB2884A1370F8
:100AB000136803F00F03AB420DD0012070BD40F26C
:100AC0003721844800F04AF9E7E74FF40E71814876
:100AD00000F044F9E3E7236813F0020F18D0A3688D
:100AE0007BB1802B0DD0902B0BD0A02B09D0B02B3D
:100AF00007D0C02B05D0D02B03D0E02B01D0F02B9A
:100B000037D1754A936823F0F003A1680B439360D3
:100B1000236813F0010F73D06368032B2FD8636829
:100B2000012B32D09A1E012A36D96B4A126812F074
:100B3000020F00F0CA8068498A6822F0030213435A
:100B40008B60FFF79DFC06466368012B2BD0022BC0
:100B500038D0032B45D0604B9B6813F00C0F4FD05F
:100B6000FFF78EFC801B41F288339842F3D90320B3
:100B7000A4E740F24F21574800F0F0F8C1E740F2F7
:100B80005621544800F0EAF8C9E7534A126812F4B3
:100B9000003FD0D1012091E74F4A126812F0007F48
:100BA000C9D101208AE74C4B9B6803F00C03042B4E
:100BB00026D0FFF765FC801B41F288339842F2D9BA
:100BC00003207BE7444B9B6803F00C03082B17D0F2
:100BD000FFF756FC801B41F288339842F2D903207C
:100BE0006CE73D4B9B6803F00C030C2B08D0FFF720
:100BF00047FC801B41F288339842F2D903205DE71D
:100C0000334B1B6803F00F03AB4209D9EAB2304BF8
:100C10001A701B6803F00F03AB4201D001204DE7AF
:100C2000236813F0040F14D0E3685BB1B3F5805F61
:100C300008D0B3F5A05F05D0B3F5C05F02D0B3F51F
:100C4000E05F36D1244A936823F4E053E1680B4314
:100C50009360236813F0080F15D023695BB1B3F5D7
:100C6000805F08D0B3F5A05F05D0B3F5C05F02D0B8
:100C7000B3F5E05F23D1184A936823F460432169F8
:100C800043EAC1039360FFF7B7FE134B9B6803F081
:100C9000F003F02292FAA2F2B2FA82F2D3400F4AA3
:100CA000D35CD8400E4B18600F20FFF7B9FB002033
:100CB00004E74FF42D71074800F050F8C2E740F206
:100CC000BB21044800F04AF8D5E70120F6E600BF52
:100CD000003C02403C340008003802402C3400083C
:100CE0000C000020014B1868704700BF0C0000206A
:100CF000FEE7000008B5034800F052F80120FFF7B6
:100D0000F7FF00BF6C34000808B503460C4A1268B0
:100D10005AB10B4A1068033323F003030344094A12
:100D2000934206D8064A136008BD054A0649116079
:100D3000EFE701F0E1FE0C2303604FF0FF30F3E733
:100D40007C00002000FC00202C0100200123036017
:100D5000014B0B60704700BF0400002008B50A4635
:100D60000146024800F004F8FFF7C4FF8034000891
:100D70000FB400B583B004AB53F8042B019380216A
:100D8000064801F0F3FE002803DD0146034800F0A9
:100D900047F803B05DF804EB04B07047840000200E
:100DA00010B5044601F0AEFE0146204600F038F8CA
:100DB0000121024800F034F810BD00BF443500089E
:100DC0002DE9F04385B004460F4643560BB10E465D
:100DD0001EE0042528462146ABBE0446384605B031
:100DE000BDE8F08314F9011B04AA1A4402F8101C90
:100DF0000133AB42F6D304AA1344002203F8102CAB
:100E00004FF00408E94640464946ABBE8046761B93
:100E1000002EE3D03546102E28BF10250023E8E72A
:100E200008B5FFF7CDFF08BD08B500F093F8024AFA
:100E3000024B9A6008BD00BF0000000800ED00E012
:100E4000F8B504460D4617461E462748FFF790FFA3
:100E500021682648FFF78CFF61682548FFF788FF67
:100E6000A1682448FFF784FFE1682348FFF780FF6B
:100E700021692248FFF77CFF61692148FFF778FF6D
:100E8000A1692048FFF774FFE1691F48FFF770FF71
:100E90001E48FFF76DFF29461D48FFF769FF1D4CEF
:100EA000E16A1D48FFF764FF216B1C48FFF760FFF4
:100EB000E16B1B48FFF75CFF15F0800F0AD115F4BA
:100EC000004F0CD11748FFF753FF06991648FFF75C
:100ED0004FFFF8BD39461548FFF74AFFEFE73146A7
:100EE0001348FFF745FFEDE7AC340008BC340008B9
:100EF000CC340008DC340008EC340008FC34000872
:100F00000C3500081C3500082C3500083C3500085D
:100F10004835000800ED00E0583500086835000845
:100F200078350008A8350008B03500088835000875
:100F30009835000883691A888A4201D000207047DA
:100F40000268033A012A03D8023383610120704703
:100F5000002070470C4B1A6842F001021A60002111
:100F600099601A6822F0847222F480321A60074A6B
:100F70005A601A6822F480221A60D960044B4FF03C
:100F800000629A60704700BF0038024010300024B1
:100F900000ED00E0224B9B6803F00C03042B14D0FF
:100FA000082B16D01BB11F4B1F4A1A6002E01D4BC5
:100FB0001D4A1A601A4B9B68C3F303131B4AD15C8A
:100FC000184A1368CB4013607047164B184A1A60D2
:100FD000F0E7134B5A685B6803F03F0312F4800F8D
:100FE00013D0134AB2FBF3F20D4B5B68C3F38813C3
:100FF00003FB02F30A4A5268C2F301420132520073
:10100000B3FBF2F3074A1360D4E7074AB2FBF3F2EB
:10101000034B5B68C3F3881303FB02F3EAE700BFEB
:10102000003802400C0000200024F400F4350008D1
:1010300040787D01164A936843F001039360144B96
:101040009B6813F0010FFAD0124A136843F440333F
:1010500013600F4B5A6822F040725A60DA6A22F429
:101060007002DA625A6B22F01F025A635A6B42F026
:1010700001025A639A6822F400629A609A6842F008
:1010800002029A605A6842F020025A60704700BF1C
:101090000020014004230140024A936843F080434A
:1010A0009360704700200140014BD86C80B27047BC
:1010B0000020014008B1014A10607047040100207F
:1010C00008B5054A136823F002031360034B1B683D
:1010D00003B1984708BD00BF002001400401002073
:1010E000022842D80F2942D8032A42D8022807D022
:1010F00010B401281BD050B1022827D0012014E0E1
:10110000A1F10D03DBB2022BF2D9002070471A4B7C
:101110001868490003248C4020EA0400186018680D
:1011200002FA01F101431960012010BC7047134B12
:101130001868490003248C4020EA040018601868ED
:1011400002FA01F1014319600120EEE70C4B186827
:10115000490003248C4020EA04001860186802FA51
:1011600001F1014319600120DFE7002070470020F2
:1011700070470020704700BF00000240000402409A
:101180000008024002283FD80F293FD8012A01D980
:1011900000207047022807D030B4012819D050B180
:1011A000022823D0012012E0A1F10D03DBB2022BB3
:1011B000F2D900207047164B5C68012000FA01F557
:1011C00024EA05045C605C688A4022435A6030BCB3
:1011D0007047104B5C68012000FA01F524EA050411
:1011E0005C605C688A4022435A60F0E70A4B5C68A6
:1011F000012000FA01F524EA05045C605C6802FA4B
:1012000001F121435960E2E7002070470020704758
:10121000000002400004024000080240022842D8B8
:101220000F2942D8032A42D8022807D010B4012837
:101230001BD050B1022827D0012014E0A1F10D03EA
:10124000DBB2022BF2D9002070471A4B9868490094
:1012500003248C4020EA04009860986802FA01F1A7
:1012600001439960012010BC7047134B98684900F6
:1012700003248C4020EA04009860986802FA01F187
:10128000014399600120EEE70C4B98684900032464
:101290008C4020EA04009860986802FA01F101434A
:1012A00099600120DFE70020704700207047002090
:1012B000704700BF000002400004024000080240E6
:1012C000022842D80F2942D8022A42D8022807D041
:1012D00010B401281BD050B1022827D0012014E0FF
:1012E000A1F10D03DBB2022BF2D9002070471A4B9B
:1012F000D868490003248C4020EA0400D860D868EC
:1013000002FA01F10143D960012010BC7047134B70
:10131000D868490003248C4020EA0400D860D868CB
:1013200002FA01F10143D9600120EEE70C4BD868C5
:10133000490003248C4020EA0400D860D86802FAEF
:1013400001F10143D9600120DFE700207047002050
:1013500070470020704700BF0000024000040240B8
:101360000008024002283FD80F293FD8012A01D99E
:1013700000207047022807D030B4012819D050B19E
:10138000022823D0012012E0A1F10D03DBB2022BD1
:10139000F2D900207047164B5C69012000FA01F574
:1013A00024EA05045C615C698A4022435A6130BCCE
:1013B0007047104B5C69012000FA01F524EA05042E
:1013C0005C615C698A4022435A61F0E70A4B5C69C0
:1013D000012000FA01F524EA05045C615C6902FA67
:1013E00001F121435961E2E7002070470020704776
:1013F000000002400004024000080240022829D8F0
:101400000F2929D8022806D0012813D050B102286C
:1014100018D001207047A1F10D03DBB2022BF3D9E4
:10142000002070470D4A5369012000FA01F159402C
:10143000516170470A4A5369012000FA01F159408D
:1014400051617047074A5369012000FA01F1594080
:101450005161704700207047002070470000024033
:10146000000402400008024002287BD80F297BD8E4
:101470000F2A7BD8022808D010B401282ED058B1EA
:1014800002284DD0012010BC7047A1F10D03DBB242
:10149000022BF1D90020704707290ED8344C236A5B
:1014A00089000F20884023EA00032362236A02FA9E
:1014B00001F1194321620120E5E72D4B5C6A01F03F
:1014C000070080000F21814024EA01015962596A16
:1014D00002FA00F0084358620120D4E707290ED829
:1014E000244C236A89000F20884023EA00032362EA
:1014F000236A02FA01F1194321620120C3E71D4862
:10150000446A01F007039B000F21994024EA01017E
:101510004162416A02FA03F30B4343620120B2E7DE
:10152000072910D9144B586A01F0070189000F24CC
:101530008C4020EA04005862586A02FA01F1014323
:10154000596201209FE70C4B186A89000F248C40D8
:1015500020EA04001862186A02FA01F101431962D4
:10156000012090E70020704700207047002070475E
:1015700000000240000402400008024030B583B081
:1015800005460B4B1B68019300240CE045FA04F25E
:1015900002AB234402F0010213F8041C0020FFF701
:1015A000E1FE0134E4B2032CF0D903B030BD00BF3A
:1015B0000436000808B501220A210020FFF7D2FEF8
:1015C00000F09EF94FF07E5000F0BAF900220A2197
:1015D0001046FFF7C7FE08BD08B50122082100200C
:1015E000FFF77EFD002208211046FFF717FE0022BC
:1015F00008211046FFF7C6FD012209210020FFF750
:101600006FFD002209211046FFF708FE0022092184
:101610001046FFF7B7FD01220A210020FFF760FD09
:1016200000220A211046FFF7F9FD00220A21104688
:10163000FFF7A8FD012204210020FFF751FD002241
:1016400004211046FFF7EAFD002204211046FFF7AF
:1016500099FD012205210020FFF742FD002205210E
:101660001046FFF7DBFD002205211046FFF78AFD3B
:10167000012206210020FFF733FD0022062110463B
:10168000FFF7CCFD002206211046FFF77BFD01226B
:1016900007210020FFF724FD002207211046FFF755
:1016A000BDFD002207211046FFF76CFD012008BD9B
:1016B00010B50446002208211046FFF753FE002211
:1016C00009211046FFF74EFE2009FFF757FFFFF7ED
:1016D00071FF2046FFF752FFFFF76CFF012010BD9E
:1016E00008B500F00DF90120FFF7E2FF4FF0804050
:1016F00000F026F908BD000010B500F001F90F4C0C
:10170000204600F01DF9FFF767FF204600F018F9AA
:101710000220FFF733FFFFF74DFF0220FFF72EFFF8
:10172000FFF748FF0C20FFF729FFFFF743FF0F20CB
:10173000FFF7BEFFFFF7D4FF012010BD00002042DD
:1017400010B50446012208210020FFF70BFE0022FD
:1017500009211046FFF706FE2009FFF70FFFFFF7EC
:1017600029FF2046FFF70AFFFFF724FF012010BDE5
:1017700018B138B50546002406E003207047C0B212
:10178000FFF7DEFF0134E4B228570028F7D101202B
:1017900038BD000010B5041E01DB002314E02D202D
:1017A000FFF7CEFF6442F8E703EB83035900114AC9
:1017B00082FB0432E317C3EBA203184603EB830357
:1017C0005A00A31A0B440446002CEDD10A48A0FB92
:1017D0000320C008044600EB80004200981AC0B203
:1017E0003030C0B2FFF7ACFF2346002CEED1012011
:1017F00010BD00BF67666666CDCCCCCC012901D98F
:101800000220704708B58901C9B2084460F07F0022
:10181000C0B2FFF74DFF012008BD0000044B1A685D
:1018200022F4E0621A601A6842F4A0621A607047FB
:101830000CED00E0EF280FD810B44409074951F827
:10184000243000F01F00012202FA00F0184341F892
:101850002400002010BC70470220704700E100E027
:101860000F4B9A6822F480629A609A6822F40062B0
:101870009A609A6842F480529A609A6822F0010253
:101880009A609A6822F002029A601A6842F0010295
:101890001A60034B1B6813F0020FFAD0704700BFA9
:1018A00000380240032825D8032825D8DFE800F0B7
:1018B000020A121A114A136B012000FA01F11943AE
:1018C000116370470D4A536B012000FA01F119436F
:1018D00051637047094A136C012000FA01F1194362
:1018E00011647047054A536C012000FA01F1194355
:1018F0005164704702207047012070470038024051
:10190000044B1A6842F004021A601A6822F00202BC
:101910001A60704710E000E0044B586000229A60A3
:101920001A6842F001021A60704700BF10E000E040
:10193000024B1868C0F30040704700BF10E000E0A1
:1019400008B5084A136823F002031360064900F043
:1019500063FF01F0B1F8FFF7DFFFFFF7E9FF0028B1
:10196000FBD008BD10E000E000606A464FF0804305
:101970001A6822F480721A601A6822F400721A60DF
:101980001A6822F010021A605A6822F080025A6027
:101990009A6822F001029A609A6822F002029A6024
:1019A0009A6822F004029A604FF4F4729A621A6AFA
:1019B00042F002021A621A6A42F008021A629A6936
:1019C00022F0F0029A619A6942F030029A611A6A32
:1019D00042F001021A624FF6DC72DA621A6842F0D3
:1019E00004021A601A6822F002021A605A6942F070
:1019F00001025A61DA6842F00102DA6070474FF082
:101A00008042136843F001031360704708B1014A34
:101A1000106070470801002008B54FF0804213693C
:101A200023F001031361024B1B6803B1984708BD03
:101A300008010020234B1A6822F480721A601A6889
:101A400022F400721A601A6822F010021A605A68B2
:101A500022F080025A609A6822F001029A609A6825
:101A600022F002029A609A6822F004029A600F2221
:101A70009A621A6A42F002021A621A6A42F0080274
:101A80001A629A6922F003029A619A6942F001028D
:101A90009A619A6922F0F0029A619A6942F03002E2
:101AA0009A619A6922F00C029A611A6A42F0010264
:101AB0001A624FF6DC72DA62DA6842F00202DA6029
:101AC000704700BF000C0040024A136843F0010356
:101AD00013607047000C0040024A136823F00103B2
:101AE00013607047000C0040014B586B704700BFFB
:101AF000000C004008B1014A106070470C01002042
:101B000008B5054A136923F002031361034B1B68F0
:101B100003B1984708BD00BF000C00400C01002035
:101B2000134B0022DA6040F271229A60DA6842F4C4
:101B30000042DA60DA6822F48052DA60DA6822F46D
:101B40008062DA601A6922F480521A611A6922F4FA
:101B500000521A61DA6842F00802DA60DA6842F08C
:101B60000402DA60DA6842F40052DA60704700BFBB
:101B700000440040034B5860024B1B6813F0400FB9
:101B8000FAD070470044004070B594B0002401942E
:101B9000204B1A6C42F080521A641B6C03F0805385
:101BA0000193019B02941C4B1A6842F440421A6054
:101BB0001B6803F440430293029B0123089309939B
:101BC0004FF480030F93192310934FF4A8731193CC
:101BD000042612960723139302250E9508A8FEF7F4
:101BE000EDFC0F230393049505944FF48053069363
:101BF0000794294603A8FEF749FFFFF773F8074B40
:101C0000A3FB00308009FEF7A5FC3046FEF7B8FCC8
:101C100014B070BD0038024000700040D34D621017
:101C200008B5FEF713FCFFF7AFFFFFF7B3F908BDE8
:101C300008B51F4B1B78F3B11D4B00221A70FFF73C
:101C400053FF82B21B4B1B8893421CD34FF6DC72AE
:101C500012FA80F0C01A00F043FB13A3D3E900236B
:101C600000F0A8FB0022144B00F0A4FB00F0B4FD30
:101C7000124B187006E00E4B01221A70FFF734FF6A
:101C80000C4B188008BDD01A00F02AFB06A3D3E93C
:101C9000002300F08FFB0022074B00F08BFB00F0CD
:101CA0009BFD064B1870EDE7006F8104C58FA13FC7
:101CB00014010020120100200000E03F1501002067
:101CC00008B5FFF7F1F9014B188008BD100100209D
:101CD00008B501210846FFF791FB08BD38B5C94892
:101CE000FFF708FFC848FFF7E5F9C848FFF78EFE81
:101CF000FFF7B6FD03210220FFF7D4FD00210220EB
:101D0000FFF7D0FD00210846FFF7CCFD01210020A0
:101D1000FFF7C8FD08210320FFF7C4FD11210220B1
:101D2000FFF7C0FDFFF77AFDFFF7EAFDFFF782FE40
:101D3000FFF71CFEFFF7F4FE3220FFF77BFD1220B9
:101D4000FFF778FD1C20FFF775FD022211460020E9
:101D5000FFF7C6F9022203210020FFF7C1F907228D
:101D600002210020FFF780FB072203210020FFF75C
:101D70007BFB032201210020FFF7B2F902220021A0
:101D80000846FFF7ADF9022200210846FFF76CFB79
:101D9000022200210846FFF793FA01220021104693
:101DA000FFF79EF9002211460120FFF737FA0022C3
:101DB00011460120FFF7E6F9012206211046FFF740
:101DC0008FF9002206210120FFF728FA00220621C0
:101DD0000120FFF7D7F9012207211046FFF780F90C
:101DE000002207210120FFF719FA00220721012014
:101DF000FFF7C8F9012202211046FFF771F900220E
:101E000002210120FFF70AFA002202210120FFF738
:101E1000B9F9012203211046FFF762F900220321DC
:101E20000120FFF7FBF9002203210120FFF7AAF9A7
:101E3000012211461046FFF753F9002201210846FE
:101E4000FFF7ECF9002201210846FFF79BF9012278
:101E500004211046FFF744F9002204210120FFF776
:101E6000DDF9002204210120FFF78CF90122052170
:101E70001046FFF735F9002205210120FFF7CEF9C2
:101E8000002205210120FFF77DF9614C2046FFF774
:101E900057FD2046FFF754FD2046FFF751FD002275
:101EA00006210120FFF75EFA002207210120FFF73B
:101EB00059FA002202210120FFF754FA00220321DF
:101EC0000120FFF74FFA002201210846FFF74AFAE6
:101ED000002204210120FFF745FA002205210120FC
:101EE000FFF740FAFFF708FCFFF7A4F8FFF7D4F874
:101EF000FFF785FD15E0012206211046FFF732FAB3
:101F0000002207210120FFF72DFA012202211046AD
:101F1000FFF728FA002203210120FFF723FAFFF739
:101F2000DFFB4120FFF726FEFFF7CEFD0122002157
:101F30001046FFF717FA4FF07A50FFF701FD002225
:101F400011460120FFF70EFA3248FFF7F9FC324B39
:101F50001B8840F6E44404FB03F4304BA3FB04234A
:101F6000E41A03EB5404C4F3CF242D4BA3FB043435
:101F7000C4F3C7042B48FFF7FBFB2B4D2878FFF772
:101F800009FC2A48FFF7F4FB01210020FFF736FC8B
:101F90002748FFF7EDFB2046FFF7FCFB2548FFF73E
:101FA000E7FBFFF799FD2B781E2BA4D81D2BB6D885
:101FB000002206210120FFF7D5F900220721012088
:101FC000FFF7D0F9002202210120FFF7CBF9002210
:101FD00003210120FFF7C6F9012206211046FFF771
:101FE000C1F9002207210120FFF7BCF900220221DC
:101FF0000120FFF7B7F9012203211046FFF7B2F9DC
:102000008DE700BF311C0008C11C0008D11C00086E
:1020100000007A440000204110010020010110005E
:10202000CDCCCCCC083600081501002014360008B1
:1020300018360008203600087047000081F0004183
:1020400002E000BF83F0004330B54FEA41044FEA9D
:10205000430594EA050F08BF90EA020F1FBF54EA38
:10206000000C55EA020C7FEA645C7FEA655C00F0D4
:10207000E2804FEA5454D4EB5555B8BF6D420CDDA5
:102080002C4480EA020281EA030382EA000083EA28
:10209000010180EA020281EA0303362D88BF30BDC8
:1020A00011F0004F4FEA01314FF4801C4CEA11311E
:1020B00002D0404261EB410113F0004F4FEA03337D
:1020C0004CEA133302D0524263EB430394EA050F08
:1020D00000F0A780A4F10104D5F1200E0DDB02FA77
:1020E0000EFC22FA05F2801841F1000103FA0EF20B
:1020F000801843FA05F359410EE0A5F120050EF1D1
:10210000200E012A03FA0EFC28BF4CF0020C43FA01
:1021100005F3C01851EBE37101F0004507D54FF00E
:10212000000EDCF1000C7EEB00006EEB0101B1F55E
:10213000801F1BD3B1F5001F0CD349085FEA3000A4
:102140004FEA3C0C04F101044FEA445212F5800FAF
:1021500080F09A80BCF1004F08BF5FEA500C50F14C
:10216000000041EB045141EA050130BD5FEA4C0C2F
:10217000404141EB010111F4801FA4F10104E9D1B8
:1021800091F0000F04BF01460020B1FA81F308BFAF
:102190002033A3F10B03B3F120020CDA0C3208DD7B
:1021A00002F1140CC2F10C0201FA0CF021FA02F156
:1021B0000CE002F11402D8BFC2F1200C01FA02F1C6
:1021C00020FA0CFCDCBF41EA0C019040E41AA2BFEB
:1021D00001EB0451294330BD6FEA04041F3C1CDAB3
:1021E0000C340EDC04F11404C4F1200220FA04F0D3
:1021F00001FA02F340EA030021FA04F345EA03017D
:1022000030BDC4F10C04C4F1200220FA02F001FA3E
:1022100004F340EA0300294630BD21FA04F02946C0
:1022200030BD94F0000F83F4801306BF81F4801159
:102230000134013D4EE77FEA645C18BF7FEA655CCC
:1022400029D094EA050F08BF90EA020F05D054EA9E
:10225000000C04BF1946104630BD91EA030F1EBFA3
:102260000021002030BD5FEA545C05D140004941A7
:1022700028BF41F0004130BD14F580043CBF01F59A
:10228000801130BD01F0004545F0FE4141F4700180
:102290004FF0000030BD7FEA645C1ABF194610465B
:1022A0007FEA655C1CBF0B46024650EA013406BF5C
:1022B00052EA033591EA030F41F4002130BD00BF1B
:1022C00090F0000F04BF0021704730B54FF48064D8
:1022D00004F132044FF000054FF0000150E700BF59
:1022E00090F0000F04BF0021704730B54FF48064B8
:1022F00004F1320410F0004548BF40424FF00001A5
:102300003EE700BF42004FEAE2014FEA31014FEAE7
:1023100002701FBF12F07F4393F07F4F81F0605136
:10232000704732F07F4208BF704793F07F4F04BF81
:1023300041F40021704730B54FF4607401F000455E
:1023400021F000411CE700BF50EA010208BF7047BE
:1023500030B54FF000050AE050EA010208BF7047AF
:1023600030B511F0004502D5404261EB41014FF418
:10237000806404F132045FEA915C3FF4D8AE4FF020
:1023800003025FEADC0C18BF03325FEADC0C18BF03
:10239000033202EBDC02C2F1200300FA03FC20FA54
:1023A00002F001FA03FE40EA0E0021FA02F11444A1
:1023B000BDE600BF70B54FF0FF0C4CF4E06C1CEABA
:1023C00011541DBF1CEA135594EA0C0F95EA0C0F2B
:1023D00000F0DEF82C4481EA030621EA4C5123EA9E
:1023E0004C5350EA013518BF52EA033541F48011CD
:1023F00043F4801338D0A0FB02CE4FF00005E1FB80
:1024000002E506F00042E0FB03E54FF00006E1FBC9
:1024100003569CF0000F18BF4EF0010EA4F1FF040C
:10242000B6F5007F64F5407404D25FEA4E0E6D414C
:1024300046EB060642EAC62141EA55514FEAC5205D
:1024400040EA5E504FEACE2EB4F1FD0C88BFBCF5D9
:10245000E06F1ED8BEF1004F08BF5FEA500E50F18A
:10246000000041EB045170BD06F0004646EA010150
:1024700040EA020081EA0301B4EB5C04C2BFD4EB82
:102480000C0541EA045170BD41F480114FF0000E7B
:10249000013C00F3AB8014F1360FDEBF002001F0E9
:1024A000004170BDC4F10004203C35DA0C341BDC63
:1024B00004F11404C4F1200500FA05F320FA04F035
:1024C00001FA05F240EA020001F0004221F0004169
:1024D00010EBD37021FA04F642EB06015EEA430EDC
:1024E00008BF20EAD37070BDC4F10C04C4F120050C
:1024F00000FA04F320FA05F001FA04F240EA0200BF
:1025000001F0004110EBD37041F100015EEA430E8F
:1025100008BF20EAD37070BDC4F1200500FA05F2AF
:102520004EEA020E20FA04F301FA05F243EA02032E
:1025300021FA04F001F0004121FA04F220EA02003D
:1025400000EBD3705EEA430E08BF20EAD37070BD83
:1025500094F0000F0FD101F00046400041EB010163
:1025600011F4801F08BF013CF7D041EA060195F045
:10257000000F18BF704703F00046520043EB0303FF
:1025800013F4801F08BF013DF7D043EA06037047EC
:1025900094EA0C0F0CEA135518BF95EA0C0F0CD0F7
:1025A00050EA410618BF52EA4306D1D181EA03013D
:1025B00001F000414FF0000070BD50EA410606BF37
:1025C0001046194652EA430619D094EA0C0F02D17C
:1025D00050EA013613D195EA0C0F05D152EA0336C1
:1025E0001CBF104619460AD181EA030101F00041DF
:1025F00041F0FE4141F470014FF0000070BD41F028
:10260000FE4141F4780170BD70B54FF0FF0C4CF401
:10261000E06C1CEA11541DBF1CEA135594EA0C0F20
:1026200095EA0C0F00F0A7F8A4EB050481EA030E6D
:1026300052EA03354FEA013100F088804FEA033354
:102640004FF0805545EA131343EA12634FEA022222
:1026500045EA111545EA10654FEA00260EF00041E3
:102660009D4208BF964244F1FD0404F5407402D235
:102670005B084FEA3202B61A65EB03055B084FEAC6
:1026800032024FF480104FF4002CB6EB020E75EBC3
:10269000030E22BFB61A754640EA0C005B084FEAEB
:1026A0003202B6EB020E75EB030E22BFB61A754668
:1026B00040EA5C005B084FEA3202B6EB020E75EBB3
:1026C000030E22BFB61A754640EA9C005B084FEA2B
:1026D0003202B6EB020E75EB030E22BFB61A754638
:1026E00040EADC0055EA060E18D04FEA051545EA27
:1026F00016754FEA06164FEAC30343EA52734FEAD0
:10270000C2025FEA1C1CC0D111F4801F0BD141EA48
:1027100000014FF000004FF0004CB6E711F4801FAD
:1027200004BF01430020B4F1FD0C88BFBCF5E06F8D
:102730003FF6AFAEB5EB030C04BFB6EB020C5FEA9D
:10274000500C50F1000041EB045170BD0EF0004EF2
:102750004EEA113114EB5C04C2BFD4EB0C0541EA24
:10276000045170BD41F480114FF0000E013C90E621
:1027700045EA060E8DE60CEA135594EA0C0F08BFE5
:1027800095EA0C0F3FF43BAF94EA0C0F0AD150EAE4
:1027900001347FF434AF95EA0C0F7FF425AF104677
:1027A00019462CE795EA0C0F06D152EA03353FF49F
:1027B000FDAE1046194622E750EA410618BF52EA1C
:1027C00043067FF4C5AE50EA41047FF40DAF52EAF0
:1027D00043057FF4EBAE12E74A0011D212F5001266
:1027E00011D20DD56FF47873B3EB62520ED44FEA69
:1027F000C12343F0004343EA505323FA02F07047E9
:102800004FF00000704750EA013002D14FF0FF3026
:1028100070474FF0000070474FF0FF0C1CEAD05299
:102820001EBF1CEAD15392EA0C0F93EA0C0F6FD033
:102830001A4480EA010C400218BF5FEA41211ED011
:102840004FF0006343EA501043EA5111A0FB0131FD
:102850000CF00040B1F5000F3EBF490041EAD371D2
:102860005B0040EA010062F17F02FD2A1DD8B3F14E
:10287000004F40EBC25008BF20F00100704790F0BD
:10288000000F0CF0004C08BF49024CEA502040EA0F
:1028900051207F3AC2BFD2F1FF0340EAC2507047D5
:1028A00040F400004FF00003013A5DDC12F1190F13
:1028B000DCBF00F000407047C2F10002410021FA85
:1028C00002F1C2F1200200FA02FC5FEA310040F19D
:1028D000000053EA4C0308BF20EADC70704792F016
:1028E000000F00F0004C02BF400010F4000F013A4E
:1028F000F9D040EA0C0093F0000F01F0004C02BF49
:10290000490011F4000F013BF9D041EA0C018FE7B7
:102910000CEAD15392EA0C0F18BF93EA0C0F0AD0BD
:1029200030F0004C18BF31F0004CD8D180EA0100E3
:1029300000F00040704790F0000F17BF90F0004F7C
:10294000084691F0000F91F0004F14D092EA0C0F5E
:1029500001D142020FD193EA0C0F03D14B0218BFF1
:10296000084608D180EA010000F0004040F0FE4037
:1029700040F40000704740F0FE4040F440007047D3
:102980004FF0FF0C1CEAD0521EBF1CEAD15392EA52
:102990000C0F93EA0C0F69D0A2EB030280EA010C42
:1029A00049024FEA402037D04FF0805343EA1111DB
:1029B00043EA10130CF000408B4238BF5B0042F139
:1029C0007D024FF4000C8B4224BF5B1A40EA0C00DE
:1029D000B3EB510F24BFA3EB510340EA5C00B3EB10
:1029E000910F24BFA3EB910340EA9C00B3EBD10FFE
:1029F00024BFA3EBD10340EADC001B0118BF5FEA50
:102A00001C1CE0D1FD2A3FF650AF8B4240EBC25078
:102A100008BF20F0010070470CF0004C4CEA502039
:102A20007F32C2BFD2F1FF0340EAC250704740F488
:102A300000004FF00003013A37E792F0000F00F07A
:102A4000004C02BF400010F4000F013AF9D040EAF8
:102A50000C0093F0000F01F0004C02BF490011F48C
:102A6000000F013BF9D041EA0C0195E70CEAD15384
:102A700092EA0C0F08D142027FF47DAF93EA0C0F6B
:102A80007FF470AF084676E793EA0C0F04D14B024F
:102A90003FF44CAF08466EE730F0004C18BF31F001
:102AA000004CCAD130F000427FF45CAF31F00043FB
:102AB0007FF43CAF5FE700BF42000ED2B2F1FE4FA1
:102AC0000BD34FF09E03B3EB126209D44FEA0023FD
:102AD00043F0004323FA02F070474FF000007047C4
:102AE00012F1610F01D1420202D14FF0FF30704765
:102AF0004FF00000704700BF014B1868704700BFDF
:102B000010000020034613F8012B002AFBD1181AED
:102B10000138704730B5141E05469BB0184605DADB
:102B20008B232B604FF0FF301BB030BD4FF402738E
:102B3000ADF80C3014BF04F1FF3323460293059324
:102B40004FF6FF7300910491ADF80E3002461E9BC4
:102B50006946284600F072F8431CBCBF8B232B60EB
:102B6000002CE1D0009B00221A70DDE707B500932E
:102B700013460A46014603480068FFF7CBFF03B03F
:102B80005DF804FB100000202DE9F0478E689E429E
:102B900082460C469046994637D88A8912F4906F3F
:102BA00031D0256809696F1A6569022305EB45056F
:102BB00095FBF3F509F101033B449D4238BF1D46E7
:102BC000530530D5294600F07DFB064650B90C234D
:102BD000CAF80030A38943F04003A3814FF0FF30CF
:102BE000BDE8F0873A46216900F0FAFAA38923F498
:102BF000906343F08003A381266165613E44ED1B31
:102C00002660A5604E464E4500D94E4632464146A6
:102C1000206800F0F0FAA3689B1BA36023681E44A1
:102C200026600020DCE72A4600F0A6FB06460028C6
:102C3000E2D12169504600F0F7FAC8E72DE9F04FDC
:102C40009DB0804603938B891D060C4616460FD512
:102C50000B696BB9402100F035FB2060206128B979
:102C60000C23C8F800304FF0FF30C7E04023636109
:102C70000023099320238DF8293030238DF82A3042
:102C80004FF0010B37463D4615F8013B0BB1252BA4
:102C90003ED1B7EB060A0BD053463246214640469A
:102CA000FFF772FF013000F0A480099B53440993A1
:102CB0003B78002B00F09D8000234FF0FF32CDE9E0
:102CC0000523049307938DF853301A932F4605225A
:102CD00017F8011B4F4800F033FA049BD0B9D9060E
:102CE00044BF20228DF853201A0744BF2B228DF8B1
:102CF00053202A782A2A15D0079A2F4600200A2521
:102D0000394611F8013B303B092B4DD9B8B10FE0E2
:102D10002F46B8E73F4A801A0BFA00F01843049098
:102D20003D46D3E7039A111D12680391002A01DB87
:102D3000079204E0524243F00203079204933B7867
:102D40002E2B0CD17B782A2B33D1039B1A1D1B68A9
:102D50000392002BB8BF4FF0FF33023705932E4D7F
:102D600039780322284600F0EBF938B14023401BA4
:102D700003FA00F0049B0343013704933978274892
:102D80008DF8281006227E1C00F0DAF9002838D0D1
:102D9000234B13BB039B073323F007030833039331
:102DA000099B4B4409936DE705FB023201200F4656
:102DB000A6E700230137059319460A25384610F87F
:102DC000012B303A092A03D9002BC8D00591C6E758
:102DD00005FB012101230746F0E703AB00932246E0
:102DE000104B04A94046AFF30080B0F1FF3F81468D
:102DF000D6D1A3895B063FF536AF09981DB0BDE873
:102E0000F08F03AB00932246064B04A9404600F026
:102E100081F8EAE7243600082A3600082E36000832
:102E200000000000892B00082DE9F04791461F465D
:102E30008A680B69DDF820809342B8BF1346C9F851
:102E4000003091F8432006460C4612B10133C9F810
:102E500000302368990642BFD9F800300233C9F820
:102E60000030256815F0060507D104F1190AE3685A
:102E7000D9F800209B1AAB4228DC94F84330226832
:102E8000003318BF012392062DD404F143023946C2
:102E90003046C047013020D02368E568D9F80020CB
:102EA00003F00603042B08BFAD1AA36822690CBF08
:102EB00025EAE57500259342C4BF9B1AED184FF033
:102EC00000091A344D451AD1002008E0012352466A
:102ED00039463046C047013003D14FF0FF30BDE8DE
:102EE000F0870135C3E7E1185A1C302081F8430010
:102EF000224494F8451082F843100233C5E70123B9
:102F0000224639463046C0470130E6D009F1010972
:102F1000D8E700002DE9F04301F1430C0C46097E8F
:102F200085B06E291746064698460C9A00F0B38085
:102F300022D8632936D00AD8002900F0B980582950
:102F400000F0838004F1420584F8421032E06429E5
:102F500001D06929F6D120681368050603F1040140
:102F60002AD51B681160002B03DA2D225B4284F8FE
:102F700043206F480A2239E0732900F09D8008D869
:102F80006F2920D07029DDD1236843F0200323600E
:102F900003E0752917D07829D4D1782384F84530F7
:102FA000644855E01368191D1B68116004F142055F
:102FB00084F8423001238CE01B68116010F0400F50
:102FC00018BF1BB2CFE713682568181D10602806CC
:102FD00001D51B6802E06806FBD51B8854486F29A1
:102FE00014BF0A220822002184F843106568A560F6
:102FF000002DC0F29580216821F004012160002B92
:103000003DD1002D40F08E806546082A0BD1236803
:10301000DB0708D5236962689A42DEBF302305F8D2
:10302000013C05F1FF35ACEB05032361CDF80080D1
:103030003B4603AA21463046FFF7F6FE01304DD14C
:103040004FF0FF3005B0BDE8F083394884F84510F3
:10305000136821681D1D1B6815600A060BD5CA0779
:1030600044BF41F0200121601BB9226822F02002F8
:1030700022601022B7E74D0648BF9BB2EFE76546D6
:10308000B3FBF2F102FB1133C35C05F8013D0B46C3
:103090000029F5D1B9E7136825686169181D10602A
:1030A00028061B6801D5196002E06A06FBD5198065
:1030B000002323616546B9E71368191D11601D6877
:1030C00062680021284600F03BF808B1401B6060B0
:1030D00063682361002384F84330A7E723692A4605
:1030E00039463046C0470130AAD023689B0713D425
:1030F000E068039B9842B8BF1846A3E701234A46FD
:1031000039463046C04701309AD00135E368039A0A
:103110009B1AAB42F2DCEBE7002504F11909F5E755
:10312000002BACD1037884F8423004F142056CE7FF
:103130003536000846360008000000000000000098
:1031400001F0FF01102A2BDB10F0070F08D010F858
:10315000013B013A8B422DD010F0070F42B3F6D15C
:10316000F0B441EA012141EA014122F007047FF075
:1031700000070023F0E80256083C85EA010586EACC
:10318000010685FA47F5A3FA87F586FA47F6A5FA08
:1031900087F68EB9EED1F0BC01F0FF0102F0070214
:1031A00032B110F8013B013A83EA010313B1F8D1BF
:1031B0000020704701387047002D06BF35460338A0
:1031C000073815F0010F07D1013015F4807F02BFD9
:1031D000013015F4C03F0130F0BC0138704700BF2A
:1031E00010B5431E0A44914200D110BD11F8014BA5
:1031F00003F8014FF7E7884210B501EB020307D847
:10320000421E99420AD011F8014B02F8014FF8E72B
:103210008342F5D98118D21AD34200D110BD13F8D8
:10322000014D01F8014DF7E738B50546002945D0B5
:1032300051F8043C0C1F002BB8BFE41800F0D2F882
:103240001F4A1368104633B9636014602846BDE80E
:10325000384000F0C8B8A3420CD9216862189342E4
:1032600004BF1A685B68636004BF52182260046080
:10327000ECE713465A680AB1A242FAD919685818FD
:10328000A0420BD120680144581882421960DDD158
:10329000106852685A6001441960D7E702D90C23BC
:1032A0002B60D3E7206821188A4204BF1168526856
:1032B000626004BF091821605C60C7E738BD00BFC9
:1032C0001801002070B5CD1C25F0030508350C2D24
:1032D00038BF0C25002D064601DBA94203D90C237B
:1032E0003360002070BD00F07DF8214A146821464B
:1032F00091B9204C23681BB9304600F063F8206078
:103300002946304600F05EF8431C24D10C2333607C
:10331000304600F068F8E4E70B685B1B18D40B2B11
:103320000FD90B60CD50CC18304600F05CF804F19A
:103330000B00231D20F00700C31AD3D05A42E250DD
:10334000D0E78C424B6816BF636013600C46EBE716
:103350000C464968CCE7C41C24F00304A04205D005
:10336000211A304600F02EF80130CFD02560DBE77F
:10337000180100201C010020F8B5074614460E462F
:1033800021B91146BDE8F840FFF79CBF22B9FFF70D
:103390004BFF25462846F8BD00F026F8A0420FD284
:1033A00021463846FFF78EFF05460028F2D0314609
:1033B0002246FFF715FF31463846FFF735FFE9E7AC
:1033C0003546E7E738B5064C002305460846236036
:1033D000FDF79AFC431C02D1236803B12B6038BD72
:1033E000240100207047704751F8043C181F002B3F
:1033F000BCBF0B58C01870472E2E2F73797374659D
:103400006D2F7372632F73746D333266342D686160
:103410006C2F73746D3332663478785F68616C5FDB
:10342000636F727465782E63000000000000000076
:103430000102030401020304060708092E2E2F735C
:10344000797374656D2F7372632F73746D33326685
:10345000342D68616C2F73746D3332663478785F05
:1034600068616C5F7263632E6300000061626F725B
:103470007428292C2065786974696E672E2E2E00B9
:103480006173736572745F706172616D2829206663
:1034900061696C65643A2066696C65202225732237
:1034A0002C206C696E652025640A000053746163EA
:1034B0006B206672616D653A0A0000002052302070
:1034C0003D2020253038580A0000000020523120CD
:1034D0003D2020253038580A0000000020523220BC
:1034E0003D2020253038580A0000000020523320AB
:1034F0003D2020253038580A00000000205231328B
:10350000203D20253038580A00000000204C522071
:103510003D2020253038580A00000000205043206C
:103520003D2020253038580A00000000205053521A
:10353000203D20253038580A000000004653522F05
:103540004641523A0A0000002043465352203D2093
:1035500020253038580A00002048465352203D208C
:1035600020253038580A00002044465352203D2080
:1035700020253038580A00002041465352203D2073
:1035800020253038580A0000204D4D464152203D3C
:1035900020253038580A00002042464152203D2064
:1035A00020253038580A00004D6973630A00000076
:1035B000204C522F4558435F52455455524E3D20A2
:1035C000253038580A0000005B4861726446617516
:1035D0006C745D0A000000005B4275734661756C97
:1035E000745D0A005B55736167654661756C745D57
:1035F0000A000000000000000000000001020304B7
:10360000060708090405060744697374616E63655B
:10361000203D200020636D0054656D70203D20002A
:1036200020430000232D302B2000686C4C00656681
:103630006745464700303132333435363738394103
:103640004243444546003031323334353637383919
:07365000616263646566001E
:103658007856341280000020000000000024F40096
:10366800140000200000000000000000000000001E
:103678000000000000000000000000000000000042
:103688000000000000000000000000000000000032
:103698000000000000000000000000000000000022
:1036A8000000000000000000000000000000000012
:1036B8000000000000000000000000000000000002
:0836C800000000003254769866
:040000050800019559
:00000001FF
